:100000000C94CC060C9413070C9413070C94130750
:100010000C9413070C9413070C9413070C941307F8
:100020000C9413070C9413070C9454220C9427235C
:100030000C943F190C9413070C9413070C9413079A
:100040000C9413070C9413070C9413070C941307C8
:100050000C9413070C94A7190C9413070C94130712
:100060000C9413070C9413070C9413070C941307A8
:100070000C9413070C9413070C9413070C94130798
:100080000C9413070C9413070C9413070C94130788
:100090000C9413070C9413070C9413070C94130778
:1000A0000C9413070C9413070C94130729003800C1
:1000B00025022D0035001E001F0020002100220017
:1000C000230024002500260027002D002E002A00F2
:1000D00024002500260000002B0014001A00080050
:1000E000150017001C0018000C00120013002F0050
:1000F000300031002100220023002E0239000400CC
:100100001600070009000A000B000D000E000F008A
:1001100033003400000028001E001F0020000000F3
:10012000E10000001D001B00060019000500110081
:100130001000360037003800E100520027000000B0
:1001400037002800E0000153E2002C00E200E0004C
:10015000500051004F004E004B004C004900000081
:10016000010001000100010001003A003B003C00D9
:100170003D003E003F00400041004200430044007B
:100180004500010001000100010000000100010024
:100190000100010001000100010001000100010057
:1001A0000100010001000100010001000100010047
:1001B0000100010001000100010001000100010037
:1001C0000100010001000100000001000100010028
:1001D0000100000001000000010001000100010019
:1001E0000100010001000100010001000100010007
:1001F00001000000010001000100010001000100F8
:1002000001000100010001000100AA00A900A800EE
:100210004600000001000100010001000100010092
:1002200001000100010001000100010001000100C6
:1002300001000100010001000100010001000000B7
:1002400001000100010001000100010001000100A6
:100250000100010001000100010001000100010096
:100260000100010001000100010001000100010086
:100270000100010001000100010001000000010077
:100280000100010001000000010000000100010068
:100290000100010001000100010001000100010056
:1002A0000100010001000000010001000100010047
:1002B0000100010001000100010001000100010036
:1002C0000100010001000000010001000100010027
:1002D0000100010001000100010001000100010016
:1002E0000100010001000100010001000100010006
:1002F00001000000010001000100010001000100F7
:1003000001000100010001000100010001000100E5
:1003100001000100010001000100010001000100D5
:1003200001000100010001000100010001000100C5
:1003300000000100010001000100000001000000B8
:1003400001000100010001000100010001000100A5
:100350000100010001000100010000000100010096
:100360000100010001000100010001000100010085
:100370000100010001000100010000000100010076
:100380000100010001000100010001000100010065
:100390000100010001000100010001000100010055
:1003A0000100010001000000010001000100010046
:1003B0000100010001000100010001000100010035
:1003C0000100010001000100010001000100010025
:1003D0000100010001000100010001000100010015
:1003E0000100010000000100010001000100000007
:1003F00001000000010001000100010001000100F6
:1004000001000100010001000100010001000000E5
:1004100001000100010001000100010001000100D4
:1004200001000100010001000100010001000000C5
:1004300001000100010001000100010001000100B4
:1004400001000100010001000100010001000100A4
:100450000100010001000100010000000100010095
:100460000100010001000100010001000100010084
:100470000100010001000100010001000100010074
:100480000100010001000100010001000100010064
:100490000100010001000100000001000100010055
:1004A0000100000001000000010001000100010046
:1004B0000100010001000100010001000100010034
:1004C0000100000001000100010001000100010025
:1004D0000100010001000100010001000100010014
:1004E0000100000001000100010001000100010005
:1004F00001000100010001000100010001000100F4
:1005000001000100010001000100010001000000E4
:1005100001000100010001000100010001000100D3
:1005200001000100010001000100010001000100C3
:1005300001000100010001000100010001000100B3
:1005400001000100010001000100010000000100A4
:100550000100010001000000010000000100010095
:100560000100010001000100010001000100010083
:100570000100010001000000010001000100010074
:100580000100010001000100010001000100010063
:100590000100010001000000010001000100010054
:1005A0000100010001000100010001000100010043
:1005B0000100010001000100010001000100010033
:1005C0000100000001000100010001000100010024
:1005D0000100010001000100010001000100010013
:1005E0000100010001000100010001000100010003
:1005F00001000100010001000100010001000100F3
:1006000000000100010001000100000001000000E5
:1006100001000100010001000100010001000100D2
:1006200001000100010001000100000001000100C3
:1006300001000100010001000100010001000100B2
:1006400001000100010001000100000001000100A3
:100650000100010001000100010001000100010092
:100660000100010001000100010001000100010082
:100670000100010001000000010001000100010073
:100680000100010001000100010001000100010062
:100690000100010001000100010001000100010052
:1006A0000100010001000100010001000100010042
:1006B0000100010000000100010001000100000034
:1006C0000100000001000100010001000100010023
:1006D0000100010001000100010001000100000013
:1006E0000100010001000100010001000100010002
:1006F00001000100010001000100010001000000F3
:1007000001000100010001000100010001000100E1
:1007100001000100010001000100010001000100D1
:1007200001000100010001000100000001000100C2
:1007300001000100010001000100010001000100B1
:1007400001000100010001000100010001000100A1
:100750000100010001000100010001000100010091
:100760000100010001000100000001000100010082
:100770000100000001000000010001000100010073
:100780000100010001000100010001000100010061
:100790000100000001000100010001000100010052
:1007A0000100010001000100010001000100010041
:1007B0000100000001000100010001000100010032
:1007C0000100010001000100010001000100010021
:1007D0000100010001000100010001000100000012
:1007E0000100010001000100010001000100010001
:1007F00001000100010001000100010001000100F1
:1008000001000100010001000100010001000100E0
:1008100001000100010001000100010000000100D1
:1008200001000100010000000100000001000100C2
:1008300001000100010001000100010001000100B0
:1008400001000100010000000100010001000100A1
:100850000100010001000100010001000100010090
:100860000100010001000000010001000100010081
:100870000100010001000100010001000100010070
:100880000100010001000100010001000100010060
:100890000100000001000100010001000100010051
:1008A0000100010001000100010001000100010040
:1008B0000100010001000100010001000100010030
:1008C0000100010001000100010001000100010020
:1008D0000000010001000100010000000100000013
:1008E0000100010001000100010001000100010000
:1008F00001000100010001000100000001000100F1
:1009000001000100010001000100010001000100DF
:1009100001000100010001000100000001000100D0
:1009200001000100010001000100010001000100BF
:1009300001000100010001000100010001000100AF
:1009400001000100010000000100010001000100A0
:10095000010001000100010001000100010001008F
:10096000010001000100010001000100010001007F
:10097000010001000100010001000100010001006F
:100980000100010000000100010001000100000061
:100990000100000001000100010001000100010050
:1009A0000100010001000100010001000100000040
:1009B000010001000100010001000100010001002F
:1009C0000100010001000100010001000100000020
:1009D000010001000100010001000100010001000F
:1009E00001000100010001000100010001000100FF
:1009F00001000100010001000100000001000100F0
:100A000001000100010001000100010001000100DE
:100A100001000100010001000100010001000100CE
:100A200001000100010001000100010001000100BE
:100A300001000100010001000000010001000100AF
:100A400001000000010000000100010001000100A0
:100A5000010001000100010001000100010001008E
:100A6000010000000100010001000100010001007F
:100A7000010001000100010001000100010001006E
:100A8000010000000100010001000100010001005F
:100A9000010001000100010001000100010001004E
:100AA000010001000100010001000100010000003F
:100AB000010001000100010001000100010001002E
:100AC000010001000100010001000100010001001E
:100AD000010001000100010001000100010001000E
:100AE00001000100010001000100010000000100FF
:100AF00001000100010000000100000001000100F0
:100B000001000100010001000100010001000100DD
:100B100001000100010000000100010001000100CE
:100B200001000100010001000100010001000100BD
:100B300001000100010000000100010001000100AE
:100B4000010001000100010001000100010001009D
:100B5000010001000100010001000100010001008D
:100B6000010000000100010001000100010001007E
:100B7000010001000100010001000100010001006D
:100B8000010001000100010001000100010001005D
:100B9000010001000100010001000100010001004D
:100BA0000000010001000100010000000100000040
:100BB000010001000100010001000100010001002D
:100BC000010001000100010001000000010001001E
:100BD000010001000100010001000100010001000D
:100BE00001000100010001000100000012036B0080
:100BF0006500790062006F0061007200640000000F
:100C0000160371006D006B006200750069006C00D6
:100C100064006500720000000403090409026D000D
:100C2000040100A0FA0904000001030101000921E8
:100C3000110100012240000705810308000A090490
:100C400001000103010200092111010001224D00F0
:100C50000705820308000A090402000103000000DE
:100C60000921110100012236000705830308000A4B
:100C70000904030001030000000921110100012201
:100C80003900070584032000011201100100000053
:100C900008EDFE606001000102000105010906A1E6
:100CA00001050719E029E71500250195087501815F
:100CB000020508190129059505750191029501752F
:100CC0000391010507190029F71500250195F8750D
:100CD000018102C005010980A101850216010026DB
:100CE00003001A81002A8300751095018100C00558
:100CF0000C0901A1018503160100269C021A0100BE
:100D00002A9C02751095018100C005010902A1010C
:100D10000901A100050919012905150025019505FD
:100D200075018102950175038101050109300931C1
:100D30001581257F95027508810609381581257F63
:100D4000950175088106050C0A38021581257F95E5
:100D50000175088106C0C005010906A10105071932
:100D6000E029E715002501950875018102950175B7
:100D7000088101050819012905950575019102955C
:100D800001750391010507190029FF150026FF00D1
:100D9000950675088100C00011241FBECFEFDAE070
:100DA000DEBFCDBF04B603FE27C0809179029091CB
:100DB0007A02A0917B02B0917C028730904BA740D1
:100DC000B04BD1F41092790210927A0210927B0209
:100DD00010927C0214BE84B7877F84BF0FB6F8944C
:100DE000A8958091600088618093600010926000F7
:100DF0000FBEE0E0F8E3099511E0A0E0B1E0E6ED18
:100E0000FCE402C005900D92AE33B107D9F722E0A1
:100E1000AEE3B1E001C01D92A937B207E1F70E942D
:100E2000A31F0C9469260C94000090E080E00895C4
:100E30000895089581E0089581FF03C0259A2D98B3
:100E400008952598FCCF81E008950C941A070E941C
:100E5000A3112FEF84E39CE0215080409040E1F704
:100E600000C000000C94CC19FF920F931F93CF93F6
:100E7000DF938C01FC01C081D181809196018111A9
:100E80003FC082818823B9F1CE010E940A17F82E53
:100E9000682FCE010E94B016BE018F2D0E94A608B9
:100EA000EC01B8010E942507882309F44AC0B80163
:100EB000CE010E94D60A882309F443C0C531F0E769
:100EC000DF0718F5C23080E7D80708F04BC0C1151E
:100ED000E0E7DE0789F1C130D047D1F181E08093AE
:100EE000400180934101C801DF91CF911F910F9183
:100EF000FF900C942307CE010E94DF16F82ECCCF72
:100F0000CE010E940A17BE01C9CFCC3380E7D807B3
:100F100009F4ACC0CD33D04709F7F80182818823AA
:100F200009F4CBC0109241010E94711990933F01C6
:100F300080933E0180E2A7C0F801828181110E9466
:100F4000270780E0DF91CF911F910F91FF900895C7
:100F5000F80182818823A9F380913802816080930F
:100F60003802EFCFF8018281882309F4BCCF0E94B8
:100F7000C018811102C00E94A1180E94DD1890E0E3
:100F800090936A0280936902FE01E350F0478091DA
:100F900069028160E231F105C8F4EF52F84F0C9418
:100FA0001926E307EF07F307F707FB07FF07030817
:100FB00007080B080F08130817081B081F08230849
:100FC00027082B082F0880916902826080936902AC
:100FD000809169020E94E1180E94A311B2CF809112
:100FE00069028460F3CF809169028860EFCF8091BD
:100FF00069028061EBCF809169028062E7CF8091C6
:1010000069028064E3CF809169028068DFCF8091BC
:1010100069028460EACF809169028E7FD7CF809188
:1010200069028D7FD3CF809169028B7FCFCF809172
:101030006902877FCBCF809169028F7EC7CF809175
:1010400069028F7DC3CF809169028F7BBFCF809172
:1010500069028F77BBCF809169028B7FEACF909135
:101060006902892F97FB87F98058B0CFF8018281F8
:10107000882361F0109240010E94711990933F0102
:1010800080933E0182E00E940D0F5BCF8091400172
:1010900081110FC080913E0190913F010E947D1906
:1010A000883C910530F486E20E94E20D86E20E94BF
:1010B000BE0E82E00E94140F44CF80914101811145
:1010C0000FC080913E0190913F010E947D19883CA4
:1010D000910530F487E20E94E20D87E20E94BE0E85
:1010E00080E2E8CF0C94270B269A2E988FEF9FEF83
:1010F000909387008093860082E28093800089E14C
:10110000809381000C94691D0E9474080C94250B37
:101110002E9881110AC0809180008F7D809380007D
:1011200010928B0010928A00089580918000806256
:10113000809380008FEF9FEF90938B0080938A00C5
:1011400008950C941C070C94A1080895972F70E043
:1011500022E1929F600D711D1124FB019AE5899F88
:10116000E00DF11D1124EE0FFF1FE455FF4F859197
:1011700094910895FC01EE0FFF1FE451F44F859107
:10118000949108950E94A6080E94550A811520E5B1
:10119000920708F040C0811530E4930708F0FAC0C8
:1011A000883E910518F5803E910508F07DC1883A8A
:1011B000910580F4853A910508F087C0813091054A
:1011C00009F472C120F08430910508F06DC190E0FF
:1011D00080E008958D3B910508F482C0803C910524
:1011E000B0F3805C91090E94BA080895811540E22D
:1011F000940750F4811521E0920708F055C1803F13
:10120000910528F390650895811530E3930708F060
:10121000BEC09F70E8CF811545E5940760F5811544
:1012200024E5920708F0E5C0811532E5930750F4F4
:10123000811541E5940708F4B0C0982F8827816F85
:10124000906A0895282F26952695AC01437055275E
:101250008115934508F0BEC081E090E002C0880F80
:10126000991F4A95E2F740E2249F90011124822BB6
:10127000932B9C680895803340E7940798F480325C
:1012800020E7920708F0BFC0811536E5930708F400
:10129000B5C09C0130569F702115304108F097CFA2
:1012A00090620895813320E7920709F4B3C008F4EF
:1012B000AEC0823340E7940709F4AFC08333904750
:1012C00009F085CF80E093ED0895853A910509F402
:1012D000A7C0863A910509F0A6C082E890E4089577
:1012E000883A910509F4A2C0893A910509F4A1C090
:1012F0008A3A910509F4A0C08B3A910509F49FC080
:101300008C3A910509F49EC08B3B910509F49DC070
:101310008C3B910509F49CC08D3A910509F49BC062
:10132000803B910509F49AC08E3A910509F499C061
:101330008F3A910509F498C0813B910509F497C053
:10134000823B910509F496C0833B910509F495C051
:10135000843B910509F494C0853B910509F493C041
:10136000863B910509F492C0873B910509F491C031
:10137000883B910509F490C0893B910509F48FC021
:101380008A3B910509F48EC080E094E40895992782
:10139000906C08959F70906A08959C0154E0369572
:1013A00027955A95E1F7922F9370482F437021E0CB
:1013B00030E002C0220F331F4A95E2F73C68392B18
:1013C00086958695837040E2849FC0011124822B0C
:1013D000932B089581E090E002C0880F991F4A95F1
:1013E000E2F740E2249F90011124822B932B9A680C
:1013F0000895982F8827846F906A0895982F8827DA
:1014000088279F714DCF80529047946D089580E05A
:1014100091ED089580E090ED089580E092ED0895BB
:1014200081E890E4089583E890E4089582EE94E4DE
:10143000089589EE94E408958AEE94E4089585EB86
:1014400094E4089586EB94E4089583EB94E408957E
:1014500084EB94E4089587EB94E408958CEC94E491
:1014600008958DEC94E4089583E895E408958AE85E
:1014700095E4089582E995E4089584E995E4089552
:1014800081E296E4089583E296E4089584E296E486
:10149000089585E296E4089586E296E4089587E249
:1014A00096E408958AE296E408958238910549F118
:1014B000B0F48133910509F45CC048F48932910598
:1014C00009F452C08A32910509F458C00895853351
:1014D000910509F444C08933910599F00895833E3C
:1014E000910531F138F4803E910591F0823E9105ED
:1014F000B1F00895863E910511F1873E910541F1C5
:101500000895209169022370C9F080EE90E008955B
:101510002091690220FF12C089E390E00895209194
:10152000690222FF0BC024FF2EC090E080E00895E6
:101530002091690222FD2AC024FDF7CF0895209151
:10154000690223FFFBCF24FDF0CF87EE90E00895E2
:101550002091690223FFF0CF86EE90E0089520915C
:10156000690225FD16C008952091690225FD14C069
:1015700008952091690226FD12C008952091690204
:1015800026FD10C0089583EE90E0089582EE90E06D
:10159000089589E290E0089585E390E008958AE255
:1015A00090E0089581E390E0C9CF08950F931F93D1
:1015B000CF938C01FB018281811106C0C1E08C2F89
:1015C000CF911F910F910895C0914F01C11125C076
:1015D0000531104799F70E94D50A81E080934F01A9
:1015E0000E94711990934E0180934D011092420117
:1015F000109244011092430110924601109245014D
:10160000109248011092470110924A01109249012C
:1016100010924C0110924B01D2CF80914D019091CC
:101620004E010E947D19883C910540F6809142014F
:10163000E82FF0E0EE0FFF1FED5BFE4F11830083FC
:101640008F5F80934201C0E0BACF0C9418070C94CE
:10165000190785B7806885BF85B7806885BFA5E213
:10166000B1E061E070E08D91E82FE295EF70F0E07D
:1016700041A18F709B0101C0220F8A95EAF7922F3A
:101680009095942391A382A1822B82A381E0AA3218
:10169000B80749F7A3E1B1E061E070E08D91E82F70
:1016A000E295EF70F0E041A18F709B0101C0220F25
:1016B0008A95EAF7922F9095942391A382A1822B89
:1016C00082A381E0A532B80749F7E4E6F1E0A0E59E
:1016D000B1E088E791E011921192119211921D925E
:1016E0001D921D921D928E179F07A9F70C948408D6
:1016F0002F923F924F925F926F927F928F929F9222
:10170000AF92BF92CF92DF92EF92FF920F931F930F
:10171000CF93DF93CDB7DEB72C970FB6F894DEBF2B
:101720000FBECDBF80E5882E81E0982E25E231E006
:101730003A83298398868F8222242394312CC12CCA
:10174000D12C7601C394AA24A394AF81B8854D907F
:101750005D906D907C901397FD0110821182128232
:101760001382A981BA818D91BA83A983E82FE2956A
:10177000EF70F0E091A18F70910102C0220F331F32
:101780008A95E2F73C832B83822F892B81A382A148
:10179000B22EB0948B2182A330EA3A95F1F743E15F
:1017A00051E05E834D8390E080E0AD81BE813D914C
:1017B000BE83AD83A32FA295AF70B0E090960C913D
:1017C000AF81B8854D915D916D917C9149875A8724
:1017D0006B877C873F70A10102C0440F551F3A956B
:1017E000E2F79A01202309F081C0B701A601082E73
:1017F00004C0440F551F661F771F0A94D2F78A0151
:101800009B0149855A856B857C85402B512B622B2A
:10181000732BAF81B8854D935D936D937C93139734
:1018200001968231910509F0C0CF81A1B822B1A201
:1018300082A1BB818B2B82A3EF81F885808191816E
:10184000A281B381481659066A067B0641F0A09230
:1018500078010E94711990937A01809379012F8108
:1018600038852C5F3F4F38872F8349815A814A52F0
:10187000514009F06ACF809178018823D9F0809196
:10188000790190917A010E947D19069798F0E4E61B
:10189000F1E084E691E0D4014D915D916D917D91EF
:1018A0004D0141935193619371938A179B0799F767
:1018B000109278010E94720881E02C960FB6F8947D
:1018C000DEBF0FBECDBFDF91CF911F910F91FF9073
:1018D000EF90DF90CF90BF90AF909F908F907F90D0
:1018E0006F905F904F903F902F90089500E010E030
:1018F000980187CF94E0899FF0011124EC59FE4FA5
:10190000608171818281938108950895909380010F
:1019100080937F010895E0917F01F09180013097DD
:1019200021F00190F081E02D099480E00895E0918C
:101930007F01F0918001309721F00280F381E02D4A
:1019400009940895E0917F01F0918001309721F092
:101950000480F581E02D0994089520917D01309156
:101960007E012817390771F090937E0180937D01E5
:10197000E0917F01F0918001309721F00680F7819E
:10198000E02D0994089520917B0130917C01281766
:10199000390771F090937C0180937B01E0917F0186
:1019A000F0918001309721F00084F185E02D0994B9
:1019B000089508950C94D90C0E9468190E94290B6F
:1019C0000E94381A0C94691D4F925F926F927F9219
:1019D0008F929F92AF92BF92DF92EF92FF920F93FE
:1019E0001F93CF93DF93CDB7DEB72A970FB6F89446
:1019F000DEBF0FBECDBF0E94780B22E8E22E21E0B1
:101A0000F22E10E000E0D02E802F0E947A0C4B01C5
:101A10005C01F70141905190619071907F014814F1
:101A200059046A047B0409F476C08091380281FD70
:101A30000E94850C90E080E0482459246A247B248D
:101A4000B301A201082E04C0769567955795479576
:101A50000A94D2F740FF5AC08E83DF82412C512C6A
:101A60003201439404C0440C551C661C771C8A95B3
:101A7000D2F784209520A620B72081E089288A28E3
:101A80008B2809F480E088870E9471198160782F83
:101A90009A8789874E815F8168858A850E94B80D03
:101AA000000F111F000F111FF801EE57FE4F80812C
:101AB0009181A281B38184259525A625B7258083B0
:101AC0009183A283B3830E94BB1C0E948B0C9091D4
:101AD00081018917B9F10E948B0C809381012A96AC
:101AE0000FB6F894DEBF0FBECDBFDF91CF911F912F
:101AF0000F91FF90EF90DF90BF90AF909F908F90ED
:101B00007F906F905F904F900C94A3080196823164
:101B1000910509F095CF0F5F1F4F0530110509F0B2
:101B200072CF8FEF89838A831B820E947119816033
:101B3000782F9D838C8349815A816B818D810E948E
:101B4000B80DC1CF2A960FB6F894DEBF0FBECDBF39
:101B5000DF91CF911F910F91FF90EF90DF90BF9099
:101B6000AF909F908F907F906F905F904F9008956F
:101B7000CF93DF93CDB7DEB72B970FB6F894DEBFC8
:101B80000FBECDBF4F83588769877A878B871E82A8
:101B90001D8285E0FE013796DE01119601900D92BF
:101BA0008A95E1F749815A816B817C818D819E8183
:101BB0002B960FB6F894DEBF0FBECDBFDF91CF914D
:101BC0000C945514882309F4D8C0823871F40E940B
:101BD0008B0C81FDD2C089E30E94AA170E94721863
:101BE00089E30E94E7170C947218833859F40E9415
:101BF0008B0C80FDC2C083E50E94AA170E94721858
:101C000083E5EFCF843859F40E948B0C82FDB5C078
:101C100087E40E94AA170E94721887E4E2CF9CEF23
:101C2000980F913A18F40E94AA17DDCF90E2980F0E
:101C3000983050F4877091E001C0990F8A95EAF7C7
:101C4000892F0E942918CFCF9BE5980F933070F40D
:101C5000853A31F0863A39F083E890E00C94AD0C87
:101C600081E890E0FBCF82E890E0F8CF98E5980F0C
:101C7000953108F082C0883A09F440C0893A09F4E5
:101C800040C08A3A09F440C08B3A09F440C08C3A0B
:101C900009F440C08B3B09F440C08C3B09F440C0C0
:101CA0008D3A09F440C0803B09F440C08E3A09F4F3
:101CB00040C08F3A09F440C0813B09F440C0823BE8
:101CC00009F440C0833B09F440C0843B09F440C0A0
:101CD000853B09F440C0863B09F440C0873B09F4CA
:101CE00040C0883B09F440C0893B09F440C08A3BAE
:101CF00009F440C090E080E00C94C30C82EE90E0C8
:101D0000FBCF89EE90E0F8CF8AEE90E0F5CF85EB3F
:101D100090E0F2CF86EB90E0EFCF83EB90E0ECCF5A
:101D200084EB90E0E9CF87EB90E0E6CF8CEC90E09D
:101D3000E3CF8DEC90E0E0CF83E891E0DDCF8AE85F
:101D400091E0DACF82E991E0D7CF84E991E0D4CF76
:101D500081E292E0D1CF83E292E0CECF84E292E0C2
:101D6000CBCF85E292E0C8CF86E292E0C5CF87E292
:101D700092E0C2CF8AE292E0BFCF0895882309F4AF
:101D80004BC0823871F40E948B0C81FF45C089E3FF
:101D90000E94AA170E94721889E30E94E7170C9408
:101DA0007218833859F40E948B0C80FF35C083E58C
:101DB0000E94AA170E94721883E5EFCF843859F465
:101DC0000E948B0C82FF28C087E40E94AA170E9401
:101DD000721887E4E2CF9CEF980F913AF0F290E20C
:101DE000980F983050F4877091E001C0990F8A9550
:101DF000EAF7892F0E942F18D2CF9BE5980F9330D6
:101E000020F490E080E00C94AD0C885A853120F4E9
:101E100090E080E00C94C30C0895882321F00E9488
:101E200029180C9472180895882321F00E942F1805
:101E30000C94721808958F929F92AF92BF92DF9286
:101E4000EF92FF920F931F93CF93DF937C01D62FD6
:101E5000C72FFC01058102950F70128111110E949C
:101E600048180E94A317D82E882371F0112321F15E
:101E700080E28D0F883000F182E00E948D170E9471
:101E8000A31791E0D82ED926EC2FE295EF70F0E061
:101E9000E45BF04F0C9419265E0F5E0FAE0FAE0F91
:101EA000F00F0C108B0F8B0F17108B0FAF10AF10A4
:101EB00022112B118B0F4B11D12CE6CF0C2F0F7051
:101EC000C07F11F00295007F1123A9F0002359F083
:101ED00080E28D0F883010F0D11109C0802F0E9450
:101EE00029180E9472188D2F0E94E20D14C0802FB5
:101EF0000E943A18F6CF8D2F0E94BE0E002359F093
:101F000080E28D0F883010F0D11124C0802F0E9404
:101F10002F180E947218DD2009F4C4C10E94801796
:101F200080FDC0C1F70112820E947A170E94F41549
:101F3000C7010E945E110E947A17DF91CF911F9115
:101F40000F91FF90EF90DF90BF90AF909F908F9098
:101F50000C941516802F0E944018DBCFFC2FFF70C9
:101F6000BF2EC07FC03219F0B29480EFB822DD23BB
:101F700069F0D13029F1112369F1002359F0F701FB
:101F8000858180FFB0CF8F70858304C0112361F0FD
:101F9000011104C08B2D0E940D0FBDCF8B2D013080
:101FA000D1F70E945C18B7CF011106C00E945F18DC
:101FB0008B2D0E94140FAFCF013009F4ACCFF6CFB8
:101FC000112321F0063008F0A6CFE4CF053008F049
:101FD000A2CFEECF002361F38D2F0E94BE0E9BCFC8
:101FE0008C2F86958695837069F0813009F093CFA8
:101FF0008D2F9C2F9370111102C090E080E00E9401
:10200000C30C89CF8D2F9C2F9370111102C090E0CB
:1020100080E00E94AD0C7FCF8D2F112329F00E940C
:10202000C41B0E94B01C77CF0E942C1CFACF8C2FAF
:10203000837009F047C011116ECF2D2F2295269580
:102040002770220F220F6D2F6F70862E912CB12CCE
:10205000A12C022E04C0880C991CAA1CBB1C0A943B
:10206000D2F760E070E0CB01D4FF0FC06FE070E00A
:1020700080E090E004C0660F771F881F991F2A95A3
:10208000D2F76095709580959095C695C695C3706A
:10209000C23051F080F4682979298A299B29C130FE
:1020A00071F00E949D1537CF682979298A299B29CB
:1020B0000E94B91530CF0E949D15C501B4010E9440
:1020C000811529CF8695112311F08C2F81708823DB
:1020D00009F421CF2D2F229526952770220F220F4C
:1020E0006D2F6F70862E912CB12CA12C022E04C066
:1020F000880C991CAA1CBB1C0A94D2F760E070E003
:10210000CB01D4FF0FC06FE070E080E090E004C02E
:10211000660F771F881F991F2A95D2F760957095D3
:1021200080959095C695C695C370C23051F080F4E5
:10213000682979298A299B29C13071F00E94771674
:10214000EACE682979298A299B290E949316E3CE31
:102150000E947716C501B4010E945B16DCCEE0E256
:10216000ED0FE53108F062C0F0E0E754FF4E0C944B
:102170001926CE10CE10CE10CE10CE10CE10CE100E
:10218000CE10CE10CE10CE10CE10CE10CE10CE105F
:10219000CE10DB10E910F010F7100111DF708C2F5A
:1021A0008F71112321F00E94F4158D2FF4CE0E941F
:1021B00015168D2FFECE112341F0053008F0ABCE61
:1021C0008C2F8F710E943A16A6CE063008F0A3CE4F
:1021D000F7CF8C2F8F71112339F00E94F4159BCE0D
:1021E0008C2F8F711123C9F30E94151694CE1123E1
:1021F00029F08C2F8F710E94DF158DCE0E94D5158E
:102200008ACE112349F0CF718C2F0E94F41563E020
:102210008C2F0E9484177FCE81E00E948D170230A0
:1022200008F479CE82E00E948D1775CE112329F033
:10223000011159CE8C2F8F71D0CF0111CDCE8C2FA3
:102240008F71D2CF4C2F4F706D2FC7010E94150791
:102250000E94FE1460CE11115ECECF70C230A9F084
:1022600040F4CC2379F0C13009F055CE0E94861D90
:1022700052CEC33069F0C43009F04DCE8D2F0E948C
:10228000D01D49CE0E947A1D46CE0E949F1D43CE8E
:102290000E94B21D40CE4C2F4F706D2FC7010E947F
:1022A000A50839CEDF91CF911F910F91FF90EF904C
:1022B000DF90BF90AF909F908F9008950F931F93E2
:1022C000CF93DF93EC01988189812B813C81232B73
:1022D00039F08F3F19F481E09F3F19F080E001C091
:1022E00081E080FD17C0CE010E943407882391F061
:1022F000688179818A810E9456178C010E94AF16ED
:102300000E947615B801CE01DF91CF911F910F91F8
:102310000C941B0FDF91CF911F910F9108950E9494
:1023200048180E9459180E941B180E9472180E9497
:102330005D1D0E94B01C90E080E00E94AD0C90E01A
:1023400080E00C94C30C0E9437180C948F110E94EB
:102350004C17E92FE295EF70E250EE30E0F4F0E038
:10236000EC54FE4E0C941926C211C211CB11CB11A4
:10237000CD11CB11CB11CB11C211C211D211CB1186
:10238000CB11D211803F19F020F4803E20F481E07F
:102390000895843FE1F380E00895803EC0F3813FDB
:1023A000D1F7F5CF93FB882780F90895CF93DF937A
:1023B00000D000D01F92CDB7DEB70F900F900F90D6
:1023C0000F900F90DF91CF910895CF93DF9300D0BE
:1023D00000D000D0CDB7DEB726960FB6F894DEBF9A
:1023E0000FBECDBFDF91CF9108951F93CF93DF93A1
:1023F000C091970116E0809198018C1304C0DF9181
:10240000CF911F910895D0E01C9FF0011D9FF00D0A
:102410001124E756FE4F408151816281738184818E
:1024200095810E94E5112196C770E5CF4091C901C1
:102430005091CA016091CB017091CC018091CD0186
:102440009091CE010C94E5111F93CF93DF9380916F
:10245000CE01807FD1F48091CB018823B1F08091AF
:102460009701D0919801B091C901C091CA014091E2
:10247000CC015091CD01A1E0BF3F09F0A0E0BA012D
:102480006095709516E0D81304C0DF91CF911F912D
:10249000089521E04115510521F02A2FCF3F09F081
:1024A00020E090E020FD38C0189FF001199FF00D4A
:1024B0001124E756FE4F21812C132EC020812B13AF
:1024C0002BC02281211128C0238134812417350794
:1024D00000F1241B350B283C3105F0F42091CE018E
:1024E0002F7020612093CE0126E0289FF001299FC4
:1024F000F00D1124E256FE4F80818F708061808341
:1025000089EC91E00E945E11DF91CF911F910C94B4
:10251000F511260F371FDFCF01968770B4CFAF922A
:10252000BF92CF92DF92EF92FF920F931F93CF93C0
:10253000DF93CDB7DEB761970FB6F894DEBF0FBE5D
:10254000CDBF8C0185E0F801DE011D9601900D9252
:102550008A95E1F7D8014C9111965C9111971296EA
:10256000EC903091C9016091CA018091CC019091A9
:10257000CD0121E0009731F06F3F19F421E03F3F9A
:1025800009F020E0B22FB170BB2E20FD80C1F80110
:10259000C380D480A090CB01AA2009F427C1C8161B
:1025A000D906D0F1D601A81BB90BCD01FF24F394B5
:1025B000883C910508F0F12C8091CE01982F907FF6
:1025C000FF2009F4CAC0911187C0FE2C651329C0F1
:1025D000341327C0E11025C08F7080618093CE0135
:1025E0000E94161289EC91E00E945E118091CE014A
:1025F000F80185838F2D61960FB6F894DEBF0FBE6C
:10260000CDBFDF91CF911F910F91FF90EF90DF90A1
:10261000CF90BF90AF900895809590958C0D9D1DA3
:10262000C5CF81E0CD2831F05F3F19F481E04F3F05
:1026300009F080E080FD24C081E08E25F82FF17044
:10264000DF2E80FF3FC0809197012091980136E0F6
:10265000821318C04D875E878D859E850E944C171A
:10266000292F22952F70223008F1243030F59F70E9
:1026700009F1D80115969C91907FE1F4FB2CBACF1B
:1026800080E0DCCF90E0389FF001399FF00D1124FD
:10269000E756FE4F6181561306C06081461303C0A2
:1026A00062816E110FC001968770D2CF9F7011F0BA
:1026B000882321F3805E883008F3C8010E945E11F0
:1026C000BD2CDCCFEE2009F495CF8091CE01816046
:1026D0008093CE01F12C8ECF651312C0341310C03D
:1026E000E1100EC0F8018583C8010E945E1186E0EA
:1026F000F801A9ECB1E001900D928A95E1F741C093
:102700004D875E878D859E850E94A711882309F4D9
:10271000C8C0EE2009F4C5C08091CE01803270F0AF
:102720002091C9013091CA0138872F831986DB8631
:10273000CA868C87CE0107960E945E1186E0F8015A
:10274000A9ECB1E001900D928A95E1F70E94241264
:102750000E941612FF24F3944DCF911115C07C2DC9
:10276000D98AC88A6E2D89890E94D61189EC91E098
:102770000E945E1186E0E9ECF1E0DF011D928A958E
:10278000E9F70E94161236CF651312C0341310C039
:10279000E1100EC0F8018583C8010E945E11E9ECCA
:1027A000F1E086E0DF011D928A95E9F7FA2C22CF4D
:1027B0004D875E878D859E850E94A711882309F429
:1027C00070C0EE2009F46DC08091CE01803208F413
:1027D000B5CF2091C9013091CA013A8329831B8268
:1027E000DD82CC828E83CE010196A6CFC816D90693
:1027F00038F1F601E81BF90BCF01F12C883C91056B
:1028000008F03DC0FE2CEE2009F44BC0651326C035
:10281000341324C08091CE0180FD17C0982F907F83
:10282000A1F0D80115968C931597903F09F45CCFD1
:10283000982F907F905F8F70892B15968C9354CF33
:10284000809590958C0D9D1DD8CF86E0F801A9EC60
:10285000B1E001900D928A95E1F7CCCE4D875E876D
:102860008D859E850E94A711811168CF8091CE0130
:1028700081608093CE01C8010E945E11BBCE7C2D89
:10288000D98AC88A6E2D89890E94D61173CFEE200D
:1028900041F04D875E878D859E850E94A71181112D
:1028A0004DCFC8010E945E1155CF1F93CF93DF9388
:1028B000CDB7DEB72C970FB6F894DEBF0FBECDBFF5
:1028C0004F83588769877A878B879C87CE010796C5
:1028D0000E948F12882309F442C09F8188852A852F
:1028E0003B85232B39F08F3F19F481E09F3F19F08E
:1028F00080E001C081E080FD08C04F815885698576
:102900007A858B859C850E94E51116E08091970160
:1029100090919801891709F467C0819FC001112423
:1029200087569E4F0E948F12882309F45DC0E09164
:1029300097011E9FF0011124E756FE4F40815181FF
:1029400062817381848195810E94E5118091970154
:1029500090E001968770992780939701D7CF86E002
:10296000FE013796DE01119601900D928A95E1F7EE
:102970009F8188852A853B85232B39F08F3F19F469
:1029800081E09F3F19F080E001C081E080FDBDCF74
:102990002091980130E0C9010196877099274091F4
:1029A00097014817190699F096E0929FD001939FDE
:1029B000B00D1124A756BE4FFE01319601900D9225
:1029C0009A95E1F7809398010E94F5119ECF0E949D
:1029D000A311109298011092970186E0E9ECF1E0C2
:1029E000DF011D928A95E9F72C960FB6F894DEBFA9
:1029F0000FBECDBFDF91CF911F910895EF92FF924F
:102A00000F931F93CF93DF938C01892B81F0F12CCF
:102A1000EE24E394E8012196F8018491843770F460
:102A2000843008F05FC08130B1F08230A1F1DF91D5
:102A3000CF911F910F91FF90EF900895853709F482
:102A40004CC008F43DC09CE7980F903780F78F7713
:102A50000E94BE0E49C00E5F1F4FFE01849190E29E
:102A6000980F983060F48770FE2D01C0FF0F8A9593
:102A7000EAF78F2F0E944B180E94721802C00E9422
:102A8000E20D8F2D815030F2EFE9FFE03197F1F741
:102A900000C00000F7CF0E5F1F4FFE01849190E24F
:102AA000980F983050F48770FE2D01C0FF0F8A9563
:102AB000EAF78F2F0E945118DFCF0E94BE0EE1CFA0
:102AC0000E5F1F4FFE01C491C150D8F28FE99FE005
:102AD0000197F1F700C00000F7CF0E5F1F4FFE0116
:102AE000F490CFCF0E94E20D8E01CBCF089560937A
:102AF0000F027093100280931102909312020C94B3
:102B00008F110F931F9300910F02109110022091CB
:102B1000110230911202DC01CB01802B912BA22BF0
:102B2000B32B80930F0290931002A0931102B093E5
:102B300012021F910F910C948F110F931F9300910C
:102B40000F02109110022091110230911202DC014B
:102B5000CB0180239123A223B32380930F02909370
:102B60001002A0931102B09312021F910F910C94C6
:102B70008F110F931F9300910F021091100220915B
:102B8000110230911202DC01CB0180279127A2278C
:102B9000B32780930F0290931002A0931102B09379
:102BA00012021F910F910C948F1110920B02109230
:102BB0000C0210920D0210920E020C948F1141E043
:102BC00050E060E070E004C0440F551F661F771F9F
:102BD0008A95D2F740930B0250930C0260930D023A
:102BE00070930E020C948F1141E050E060E070E0B1
:102BF00004C0440F551F661F771F8A95D2F7809136
:102C00000B0290910C02A0910D02B0910E02842B48
:102C1000952BA62BB72B80930B0290930C02A093BD
:102C20000D02B0930E020C948F1141E050E060E071
:102C300070E004C0440F551F661F771F8A95D2F7B6
:102C4000409550956095709580910B0290910C0283
:102C5000A0910D02B0910E0284239523A623B723E1
:102C600080930B0290930C02A0930D02B0930E027E
:102C70000C948F1141E050E060E070E004C0440F1C
:102C8000551F661F771F8A95D2F780910B0290918E
:102C90000C02A0910D02B0910E0284279527A62761
:102CA000B72780930B0290930C02A0930D02B09370
:102CB0000E020C948F110F931F9300910B02109131
:102CC0000C0220910D0230910E02DC01CB01802B11
:102CD000912BA22BB32B80930B0290930C02A09309
:102CE0000D02B0930E021F910F910C948F110F9350
:102CF0001F9300910B0210910C0220910D02309154
:102D00000E02DC01CB0180239123A223B323809305
:102D10000B0290930C02A0930D02B0930E021F9130
:102D20000F910C948F110F931F9300910B02109130
:102D30000C0220910D0230910E02DC01CB018027A4
:102D40009127A227B32780930B0290930C02A093A4
:102D50000D02B0930E021F910F910C948F110895E4
:102D600022E1929F800D1124982F977071E001C08D
:102D7000770F9A95EAF786958695869525E0829F46
:102D8000C001112450E040E0A62FB0E0FC01E40FA8
:102D9000F51FE153FE4F60819D01042E02C0369560
:102DA00027950A94E2F721702195262727232627C5
:102DB00020834F5F5F4F4530510541F7089522E171
:102DC000929F800D1124982F9770869586958695F1
:102DD00025E0829FA001112470E060E080E0FA010C
:102DE000E60FF71FE153FE4F208130E0092E02C0AD
:102DF000369527950A94E2F721703327062E01C0F5
:102E0000220F0A94EAF7822B6F5F7F4F65307105BE
:102E100031F70895BF92CF92DF92EF92FF920F9316
:102E20001F93CF93DF938C01C0900B02D0900C02C4
:102E3000E0900D02F0900E0280910F02909110022E
:102E4000A0911102B0911202C82AD92AEA2AFB2ABB
:102E5000CFE1D0E0BC2ED701C6010C2E04C0B69540
:102E6000A795979587950A94D2F780FD0EC0219774
:102E700088F7B12C8B2DDF91CF911F910F91FF908F
:102E8000EF90DF90CF90BF900895B8018C2F0E94F3
:102E9000C208019761F3EECFCF93DF93EC010E945C
:102EA0000A17BE01DF91CF910C94C2081F93CF93F4
:102EB000DF93EB0190919601992331F0CB01DF91E3
:102EC000CF911F910C944C17882379F0CB010E946D
:102ED0000A17182F682FCE010E94B016BE01812F4D
:102EE000DF91CF911F910C94C208CB010E94DF1695
:102EF000182FF4CF809113028595859585950895B7
:102F0000809113028770089598E0899F90011124A1
:102F1000622B609313020C94F41590911302809528
:102F2000892380931302282F277061F4282F082EFD
:102F3000000C330B9217130629F08595859585951E
:102F40000C941516089590911302977081E009F47E
:102F500080E00895909112019923E1F09091690227
:102F600097FF18C0E82FE695E695E695EF3139F121
:102F70002091000130910101E20FF32FF11D8770C4
:102F800021E030E001C0220F8A95EAF78181822B8F
:102F9000818308952091000130910101F901329659
:102FA0009FEF40E05191851751F09F3F19F4511167
:102FB00001C0942F4F5F4E31A9F79F3F09F4089548
:102FC000290F311D97FD3A95F9018283089590915B
:102FD00012019923F1F09091690297FF1AC0E82F2E
:102FE000E695E695E695EF3129F1209100013091C3
:102FF0000101E20FF32FF11D282F277081E090E0EF
:1030000001C0880F2A95EAF78095918189238183F1
:1030100008952091000130910101F9013296205E5E
:103020003F4F9191891303C0DF0111971C92E21762
:10303000F307B9F7089581E090E0E0910001F09185
:103040000101E80FF91F1082019680329105A9F75E
:10305000089590913702892B809337020895982F15
:1030600090958091370289238093370208951092BA
:103070003702089590913602892B80933602089585
:10308000982F909580913602892380933602089577
:1030900010923602089590913502892B8093350263
:1030A0000895982F90958091350289238093350259
:1030B0000895109235020895809314020895109295
:1030C000140208952091000130910101F901319617
:1030D000205E3F4F80E0919191118F5FE217F307DF
:1030E000D1F70895E0910001F0910101809137023C
:1030F0008083E0910001F09101018081909136027E
:10310000892B8083E0910001F091010180819091F1
:103110003502892B808390911402992361F0E0910C
:103120000001F09101018081892B80830E94621847
:1031300081111092140280910001909101010C9470
:10314000970C6DEE7EEF90E080E00E94532660E0E9
:1031500082E090E00E94412660E083E090E00E94DF
:10316000412660E084E090E00E94412660E085E036
:1031700090E00E94412660E086E090E00C944126B9
:1031800090E080E00E943B2621E08D3E9E4F09F0BA
:1031900020E0822F089582E090E00C943326682F7F
:1031A00082E090E00C94412683E090E00C9433267A
:1031B000682F83E090E00C94412684E090E00C942A
:1031C0003326682F84E090E00C94412686E090E05E
:1031D0000C943326682F86E090E00C944126809171
:1031E0007002843051F11092390288E190E020E4BD
:1031F0000FB6F894A895809360000FBE20936000EE
:1032000080E00E94880880E00E94A30883B7817F45
:10321000846083BF83B7816083BF7894889583B7C8
:103220008E7F83BF0FB6F894A89580916000886167
:1032300080936000109260000FBE08950895089575
:10324000CF930E941E190E94780B0E941F19C0E0A4
:103250008C2F0E947A0C672B682B692B31F4CF5F7F
:10326000C530B1F780E0CF91089581E0FCCF0E9496
:10327000A3110E94691D0E948B0C0C94A3081F923D
:103280000F920FB60F9211248F939F93AF93BF931A
:1032900080913902811113C080916502909166027C
:1032A000A0916702B09168024196A11DB11D809363
:1032B000650290936602A0936702B0936802BF9183
:1032C000AF919F918F910F900FBE0F901F90189507
:1032D00082E084BD93E095BD9AEF97BD80936E0028
:1032E00008952FB7F8948091650290916602A0919D
:1032F0006702B09168022FBF0895CF92DF92EF92DC
:10330000FF920F931F932FB7F8944091650250914D
:10331000660260916702709168022FBF6A017B01AB
:10332000EE24FF248C0130E020E0C016D106E20636
:10333000F30650F0481B590BCA011F910F91FF90E3
:10334000EF90DF90CF90089541505109F3CF1F9235
:103350000F920FB60F9211248F939F93AF93BF9349
:103360008091650290916602A0916702B091680217
:103370000196A11DB11D8093650290936602A093F2
:103380006702B0936802BF91AF919F918F910F90A8
:103390000FBE0F901F9018950E94D921F8942FEF1F
:1033A00087EA91E6215080409040E1F700C000009C
:1033B00087E090EBDC018093790290937A02A093EE
:1033C0007B02B0937C0288E19CE00FB6F894A8954C
:1033D000809360000FBE90936000FFCF8F929F920A
:1033E000AF92BF92EF92FF920F931F93CF93C0E0E3
:1033F000E82EF12C8C2F0E947A0C4B015C0110E01E
:1034000000E0D501C401002E04C0B695A79597959C
:1034100087950A94D2F780FD13C00F5F1F4F0231CA
:10342000110579F7CF5FC53029F780E0CF911F9163
:103430000F91FF90EF90BF90AF909F908F90089565
:10344000602F7C2F80E00E94A608E816F90629F775
:1034500081E0ECCFCF93C82F8CE20E94EE19882335
:1034600021F08C2FCF910C94EE1980E0CF9108952C
:10347000CF930E94C018811102C00E94A118C5E616
:1034800008C00E94780B8FE39CE90197F1F700C018
:103490000000C150B1F789E20E942A1A8111EFC0E1
:1034A0008AE20E942A1A81110E94A11885E00E94D6
:1034B0002A1A81110E94CC190E94CB1880933802DD
:1034C00087E00E942A1A882371F08BE10E942A1A51
:1034D000882309F4B1C090913802892F8D7F91FF24
:1034E000826080933802809138020E94CF180E9437
:1034F000DD1890E090936A028093690280EE0E944A
:103500002A1A882341F090916902892F8E7F90FFBB
:1035100081608093690289E30E942A1A882341F01E
:1035200090916902892F8D7F91FF8260809369025B
:1035300082EE0E942A1A882341F090916902892F15
:103540008B7F92FF84608093690286EE0E942A1A24
:10355000882341F090916902892F877F93FF8860CB
:103560008093690283EE0E942A1A882341F0909189
:103570006902892F8F7E94FF80618093690285E3C1
:103580000E942A1A882341F090916902892F8F7D29
:1035900095FF80628093690281E30E942A1A882342
:1035A00041F090916902892F8F7B96FF8064809310
:1035B000690281E10E942A1A882341F090916902F0
:1035C000892F97FB87F9805880936902809169025F
:1035D0000E94E11887E20E942A1AC82F8EE10E94F9
:1035E0002A1A8111C2608FE10E942A1A8111C460D7
:1035F00080E20E942A1A8111C86081E20E942A1A80
:103600008111C06182E20E942A1A8111C06283E2A4
:103610000E942A1A8111C06484E20E942A1A882317
:1036200041F1C0688C2F0E94D8186C2F70E090E098
:1036300080E0CF910C9477158EE00E942A1A88239F
:1036400039F090913802892F8B7F92FF846049CFA7
:1036500080E10E942A1A90913802882329F0892F4C
:10366000877F93FF88603DCF892F8E7F90FF816099
:1036700038CFC111D7CF0E94D418682FD7CFCF91A0
:10368000089580913C0280FF12C06091050185E0A1
:10369000689FB00111247595679575956795603899
:1036A0007105A8F561157105A1F1862F089581FFB7
:1036B00009C06091050185E0689FB00111247595EE
:1036C0006795EDCF82FF07C06091050185E0689F97
:1036D000B0011124E4CF20913D022223A9F0909162
:1036E00004016091050185E0689FB001112429174C
:1036F000B0F6269FA001279F500D1124692F70E07E
:10370000CA010E940526CBCF65E070E0CECF8FE7DF
:10371000089581E0089580913C0280FF0CC0609183
:10372000030170E07595679575956795611571054D
:1037300049F1862F089581FF06C06091030170E072
:1037400075956795F3CF6091030182FD0BC0909151
:103750003D029923A1F06091020180910301961727
:1037600038F0682F70E06038710500F38FE7089536
:10377000899FC001112470E00E940526F4CF61E00A
:1037800070E0D7CF81E00895803F31F40E94411B63
:103790008195809340020895813F19F40E94411B56
:1037A000F8CF823F31F40E94411B819580933F0204
:1037B0000895833F19F40E94411BF8CF893F29F4F3
:1037C0000E948B1B8093410208958A3F21F40E943E
:1037D0008B1B8195F7CF8B3F31F40E948B1B81951A
:1037E0008093420208958C3F19F40E948B1BF8CFFE
:1037F000843F31F480913E02816080933E020895BF
:10380000853F21F480913E028260F7CF863F21F40C
:1038100080913E028460F1CF873F21F480913E0287
:103820008860EBCF883F21F480913E028061E5CF34
:103830008D3F31F480913C02816080933C02089579
:103840008E3F21F480913C028260F7CF8F3FB9F721
:1038500080913C028460F1CF803FC1F480914002AE
:1038600087FD1092400280913F0281110EC080912D
:10387000400281110AC080914102811106C08091ED
:103880004202811102C010923D020895813F29F445
:103890008091400218162CF3E6CF90913F02823FB0
:1038A00029F497FFE0CF10923F02DDCF833F19F458
:1038B0001916CCF3D8CF893F39F4809141021816FC
:1038C00094F610924102CFCF8A3F29F480914102B1
:1038D00087FFC9CFF6CF8B3F39F48091420287FF33
:1038E000C2CF10924202BFCF8C3F29F48091420296
:1038F0001816BCF3B8CF843F31F480913E028E7F1E
:1039000080933E02B0CF853F21F480913E028D7FAF
:10391000F7CF863F21F480913E028B7FF1CF873F26
:1039200021F480913E02877FEBCF883F21F4809184
:103930003E028F7EE5CF8D3F31F480913C028E7F39
:1039400080933C0290CF8E3F21F480913C028D7F8A
:10395000F7CF8F3F09F087CF80913C028B7FF0CF6C
:103960008EE392E00E94A20C0E94711990933B0298
:1039700080933A0208951F93CF93DF9380913A0288
:1039800090913B020E947D19AC0190913D022091E3
:10399000060130E0911106C0209107018AE0289FBE
:1039A000900111244217530780F080913F02C0918B
:1039B000400210914102D091420281110AC0C1110E
:1039C00078C0111176C0D11174C0DF91CF911F91D1
:1039D00008959F3F19F09F5F90933D02181624F4BD
:1039E0000E94411B80933F0280913F0287FF05C0E8
:1039F0000E94411B819580933F021C1624F40E9473
:103A0000411B809340028091400287FF05C00E94C5
:103A1000411B81958093400260913F02662331F102
:103A2000C0914002CC2311F1062E000C770B880BBD
:103A3000990B0E940C2523E333E343E35FE30E94E9
:103A400070250E94D42460933F026C2FCC0F770B1B
:103A5000880B990B0E940C2523E333E343E35FE3D8
:103A60000E9470250E94D42460934002111624F411
:103A70000E948B1B809341028091410287FF05C009
:103A80000E948B1B8195809341021D1624F40E9495
:103A90008B1B809342028091420287FF05C00E94E7
:103AA0008B1B819580934202DF91CF911F910C94E3
:103AB000B01C9F3F09F08FCFA0CF85E0EEE3F2E08E
:103AC000DF011D928A95E9F710923D0210923C02A7
:103AD00008950E94C018811102C00E94A1180E947E
:103AE000E61880936B0280FF03C086950C948808CB
:103AF00080E0FCCF80916B02816080936B020E941A
:103B0000EA1880916B0286950C94880880916B026C
:103B1000982F9E7F79F0825080936B028E7F91E088
:103B200009F490E080916B0290FB80F980936B0226
:103B30000E94EA1880916B0286950C9488089091F7
:103B40006B02892F8E7F90FF816080936B020E94B1
:103B5000EA1880916B0280FF03C086950C94880858
:103B600080E0FCCF80916B028E5F80936B02982F78
:103B70009E7F19F0817080936B0280916B028E7F23
:103B800091E009F490E080916B0290FB80F98093C2
:103B90006B020E94EA1880916B0286950C9488084B
:103BA00090916B02292F26958227880F9170982B70
:103BB00090936B029E7F21E009F420E080916B02DC
:103BC00020FB80F980936B020E94EA1880916B02BF
:103BD00086950C948808809163020895CF93DF93B3
:103BE00000D01F92CDB7DEB79C0180917002843067
:103BF00019F593E099833B832A839093E9008FEF33
:103C00009091E800815095FD06C095ED9A95F1F7E9
:103C100000008111F5CF8091E80085FF0DC050E0D4
:103C200040E063E070E0CE0101960E94492080915F
:103C3000E8008E778093E8000F900F900F90DF914F
:103C4000CF910895CF93DF9300D01F92CDB7DEB709
:103C500020917002243031F522E0298380589109A7
:103C60009B838A8383E08093E9008FEF9091E80043
:103C7000815095FD06C095ED9A95F1F700008111F0
:103C8000F5CF8091E80085FF0DC050E040E063E093
:103C900070E0CE0101960E9449208091E8008E7765
:103CA0008093E8000F900F900F90DF91CF910895CF
:103CB0009C01809170028430F9F482E08093E900E5
:103CC0009FEF8091E800915085FD06C085ED8A95B3
:103CD000F1F700009111F5CF8091E80085FF0CC04D
:103CE00050E040E065E070E0C9010E944920809109
:103CF000E8008E778093E8000895CF93DF93EC017E
:103D0000809170028430F1F4909112019923E9F0CE
:103D10009091690297FF19C08093E9008FEF90910D
:103D2000E800815095FD06C095E19A95F1F70000F5
:103D30008111F5CF8091E80050E040E060E270E052
:103D400085FD1AC0DF91CF91089581E08093E9004D
:103D50008FEF9091E800815095FD06C095ED9A9502
:103D6000F1F700008111F5CF8091E80085FFEACFDF
:103D700050E040E068E070E0CE010E944920809170
:103D8000E8008E778093E80080E2FE01A3E4B2E0D1
:103D900001900D928A95E1F7D5CF80916F02811144
:103DA00009C00E94D9210E9436228091E2008460DD
:103DB0008093E200089510926F0208950895089587
:103DC0000C94371942E061EC81E00E94572142E0F7
:103DD00061EC82E00E94572142E061EC83E00E94A6
:103DE000572142E261EC84E00C94572180917202E9
:103DF000833009F455C030F4813071F1823009F418
:103E000091C008958A3009F47DC08B3009F463C0F5
:103E1000893009F044C080917102813209F03FC0BD
:103E20008091750290917602009711F00397B9F591
:103E30008091E800877F8093E8008091E80082FF0E
:103E40002AC08091F100809363028091E8008B7713
:103E50008093E8000C948B2180917102813AF9F4EF
:103E60008091E800877F8093E800809175029091AF
:103E70007602892B61F460E283E492E070E00E94B4
:103E800098208091E8008B778093E800089560E0A7
:103E900090E080E0F3CF809170028111CECF089541
:103EA00080917102813AD9F78091750290917602E2
:103EB000892BA9F78091E800877F8093E8008091A3
:103EC000E80080FFFCCF809112018093F100809187
:103ED000E8008E77BDCF80917102813201F7809129
:103EE000750290917602892BD1F68091E800877F48
:103EF0008093E8000E948B218091730280931201CD
:103F00000C94A31180917102813249F68091E800EE
:103F1000877F8093E8000E948B21809174028093B8
:103F20006402089580917102813A09F0B8CF8091BE
:103F3000E800877F8093E8008091E80080FFFCCF55
:103F400080916402C2CF84B7877F84BF0FB6F89494
:103F5000A895809160008861809360001092600055
:103F60000FBE80E880936100109261000E94DA0C1D
:103F70000E94D9210E9436228091E20084608093C1
:103F8000E20078940E94B8240E94DC0C88E091E062
:103F90000E94860C80917002853019F00E94E40C1A
:103FA000F9CF0E94EF1880916E02882399F30E9446
:103FB0002019882379F30E943320ECCF292F33274F
:103FC0002330310579F158F421303105F1F02230F8
:103FD000310519F190E080E030E020E01AC0213294
:103FE000310599F122323105A9F7643098F770E074
:103FF000FB01EE0FFF1FE25DFE4F20813181665D08
:104000007E4FFB01808190E004C082E190E029E8CE
:104010003CE0FA013183208308958DE690E02CE1A5
:104020003CE0F7CF99278130910561F028F00297A5
:1040300089F6ECEEFBE002C0E8E1FCE0849190E060
:104040009F01E7CFE0E0FCE0F9CF643008F0C2CF99
:10405000E62FF0E0EE0FFF1FEA5CFE4F208131817A
:1040600089E090E0D6CF80E189BD82E189BD09B4C5
:1040700000FEFDCF8091D8008F7D8093D800809185
:10408000E00082608093E0008091E00081FDFCCF41
:104090000895AF92BF92CF92DF92FF920F931F933A
:1040A000CF93DF936C01EB018A010E94AA21F82EC5
:1040B000811123C00115110539F0F801808191812A
:1040C000C81BD90BC80ED91EB12CA12C2097A9F062
:1040D0008091E80085FD22C08091E8008E77809372
:1040E000E80001151105A1F0F80180819181A80E69
:1040F000B91EB182A08285E0F82E8F2DDF91CF917D
:104100001F910F91FF90DF90CF90BF90AF900895D7
:104110000E94AA218823D1F2F82EEFCFF6018191D7
:104120006F018093F1002197FFEFAF1ABF0ACECF46
:10413000FC01809177029091780286179707A0F092
:104140006115710529F49091E8009E779093E8003D
:1041500090E06115710551F4911108C08091E8005B
:1041600082FF35C080E00895BC01F2CF80917002DB
:104170008823C9F18530C9F18091E80083FD31C001
:104180008091E80082FDEACF8091E80080FFE1CFD6
:104190002091F3008091F200322F282F61157105D4
:1041A00019F02830310558F091E02830310509F038
:1041B00090E02091E8002E772093E800CACF81910B
:1041C0008093F100615071092F5F3F4FE7CF8091DD
:1041D0007002882341F0853041F08091E80083FF30
:1041E000BDCF81E0089582E0089583E00895FC0149
:1041F000809177029091780286179707A0F0611559
:10420000710529F48091E8008E778093E80090E0B2
:104210006115710551F4911108C08091E80082FF89
:1042200036C080E00895BC01F2CF809170028823EF
:10423000D1F18530D1F18091E80083FD32C08091C9
:10424000E80082FDEACF8091E80080FFE1CF209175
:10425000F3008091F200322F282F6115710519F0BB
:104260002830310558F091E02830310509F090E010
:104270008091E8008E778093E800CACF8491809384
:10428000F1003196615071092F5F3F4FE6CF809169
:104290007002882341F0853041F08091E80083FF6F
:1042A000BCCF81E0089582E0089583E00895982FBF
:1042B000973028F08F708093E90081E00895909303
:1042C000E900242F762F50E0981731F07091EC0020
:1042D0002091ED005091F00021FD02C09F5FE8CFDA
:1042E0003091EB003E7F3093EB003091ED003D7F4D
:1042F0003093ED003091EB0031603093EB00709320
:10430000EC002093ED005093F0002091EE0027FD8B
:10431000E5CF80E008958091710287FF13C08091FE
:10432000E80082FF06C08091E8008B778093E80068
:1043300004C0809170028111F2CF089580917002C3
:104340008823D9F38091E80080FFF8CF8091E800BE
:104350008E77ECCF2091E4003091E50085E69091D6
:10436000EC0090FF06C09091E80090FF06C080E04E
:1043700008959091E80092FDFACF909170029923F0
:1043800091F0953091F09091EB0095FD10C0409127
:10439000E4005091E5002417350709F381509A0194
:1043A000F1F684E0089582E0089583E0089581E0C5
:1043B00008950E9447220E944F22E0EEF0E08081A3
:1043C00081608083E8EDF0E080818F77808319BC85
:1043D000A7EDB0E08C918E7F8C9380818F7E80835F
:1043E00010926F0208950F931F93CF93DF930E9453
:1043F00047220E944F22C8EDD0E088818F778883C2
:1044000088818068888388818F7D888319BC109219
:10441000700210926C0210926E0210926D0200EE09
:1044200010E0F80180818B7F8083888181608883A0
:1044300042E060E080E00E945721E1EEF0E0808100
:104440008E7F8083E2EEF0E08081816080838081D6
:1044500088608083F80180818E7F8083888180617D
:104460008883DF91CF911F910F910895E8EDF0E0DF
:1044700080818F7E8083E7EDF0E0808181608083A2
:1044800084E082BF81E080936F020C94F321E8ED19
:10449000F0E080818E7F80831092E2000895109278
:1044A000DA001092E10008951F920F920FB60F925A
:1044B00011242F933F934F935F936F937F938F9329
:1044C0009F93AF93BF93EF93FF938091E10082FF9F
:1044D0000BC08091E20082FF07C08091E1008B7FDA
:1044E0008093E1000E94B7248091DA0080FF19C018
:1044F0008091D80080FF15C08091DA008E7F809374
:10450000DA008091D90080FF94C080E189BD82E10A
:1045100089BD09B400FEFDCF81E0809370020E9446
:10452000CD1E8091E10080FF19C08091E20080FFE4
:1045300015C08091E2008E7F8093E2008091E200BE
:1045400080618093E2008091D80080628093D800DF
:1045500019BC85E0809370020E94DF1E8091E1000B
:1045600084FF29C08091E20084FF25C080E189BDDD
:1045700082E189BD09B400FEFDCF8091D8008F7D16
:104580008093D8008091E1008F7E8093E10080913C
:10459000E2008F7E8093E2008091E2008160809350
:1045A000E20080916C02882309F449C084E0809382
:1045B00070020E94E01E8091E10083FF29C080917B
:1045C000E20083FF25C08091E100877F8093E100B6
:1045D00082E08093700210926C028091E1008E7FE5
:1045E0008093E1008091E2008E7F8093E2008091D1
:1045F000E20080618093E20042E060E080E00E949F
:1046000057218091F00088608093F0000E94DE1EA8
:10461000FF91EF91BF91AF919F918F917F916F919A
:104620005F914F913F912F910F900FBE0F901F9070
:10463000189519BC109270020E94DB1E72CF8091F7
:10464000E30087FD02C081E0B2CF83E0B0CF1F92CC
:104650000F920FB60F9211242F933F934F935F93B6
:104660006F937F938F939F93AF93BF93CF93EF936A
:10467000FF93C091E900CF708091EC001092E900A7
:104680008091F000877F8093F00078940E946323EC
:104690001092E9008091F00088608093F000C09350
:1046A000E900FF91EF91CF91BF91AF919F918F91D1
:1046B0007F916F915F914F913F912F910F900FBE1E
:1046C0000F901F9018951F93CF93DF93CDB7DEB750
:1046D000AA970FB6F894DEBF0FBECDBFE1E7F2E0B8
:1046E0008091F100819322E0E937F207C9F70E9437
:1046F000F61E8091E80083FF42C080917102909184
:1047000072029A3008F03BC0E92FF0E0E657FC4D0A
:104710000C9419269423B823BF23B823BF23132452
:104720003524BF238A249724803879F0823839F5DC
:10473000809175028F708093E9008091EB0085FB7A
:10474000882780F91092E90006C080916D0290914F
:104750006E02911182609091E800977F9093E8003B
:104760008093F1001092F1008091E8008E772DC0C7
:10477000282F2D7F21F48823D1F0823059F18091A8
:10478000E80083FF0AC08091E800877F8093E800FB
:104790008091EB0080628093EB00AA960FB6F894AC
:1047A000DEBF0FBECDBFDF91CF911F9108958091E5
:1047B0007302813021F7933009F080E080936E021C
:1047C0001092E9008091E800877F8093E8000E94C2
:1047D0008B21D5CF809173028111F2CF8091750228
:1047E0008F7069F28093E9002091EB0020FFE8CF01
:1047F000933031F48091EB0080628093EB00E0CF46
:104800009091EB0090619093EB0021E030E001C0CB
:10481000220F8A95EAF72093EA001092EA0080912D
:10482000EB008860EACF8111AACF109173021F7745
:104830008091E3008078812B8093E3008091E800F1
:10484000877F8093E8000E948B218091E80080FFA1
:10485000FCCF8091E30080688093E30083E0111136
:1048600001C082E0809370028ACF8058823008F0C5
:1048700086CF80917302909174028C3D23E0920761
:10488000A1F583E08A838AE289834FB7F894DE0139
:10489000139620E03EE051E2E32FF0E05093570002
:1048A000E49120FF03C0E295EF703F5FEF708E2F21
:1048B00090E0EA30C0F0C7968D939D932F5F24312E
:1048C00059F74FBF8091E800877F8093E8006AE244
:1048D00070E0CE0101960E9498208091E8008B77CD
:1048E0008093E8004CCFC096E7CFAE014F5F5F4F9B
:1048F000609175020E94DE1FBC01892B09F43FCF35
:104900009091E800977F9093E80089819A810E94B6
:10491000F720E3CF803809F032CF8091E800877F1D
:104920008093E80080916C028093F1001DCF81118B
:1049300026CF90917302923008F021CF8091E80049
:10494000877F8093E80090936C020E948B21809176
:104950006C02882331F084E0809370020E94E21E92
:104960000ECF8091E30087FDF6CF81E0F5CF08956B
:10497000CF9380917002882399F0C091E900CF70A5
:104980008091EC0080FD0EC080E0C82B1092E90001
:104990008091E80083FD0E946323CF70C093E900FB
:1049A000CF91089580E8F1CF0E94DB246894B11183
:1049B0000C946A2508950E944F2588F09F5798F01F
:1049C000B92F9927B751B0F0E1F0660F771F881F14
:1049D000991F1AF0BA95C9F714C0B13091F00E942E
:1049E0006925B1E008950C946925672F782F8827F1
:1049F000B85F39F0B93FCCF3869577956795B39555
:104A0000D9F73EF490958095709561957F4F8F4FC3
:104A10009F4F0895E89409C097FB3EF490958095C8
:104A2000709561957F4F8F4F9F4F9923A9F0F92F74
:104A300096E9BB279395F695879577956795B795F2
:104A4000F111F8CFFAF4BB0F11F460FF1BC06F5FD8
:104A50007F4F8F4F9F4F16C0882311F096E911C0EA
:104A6000772321F09EE8872F762F05C0662371F00B
:104A700096E8862F70E060E02AF09A95660F771F1F
:104A8000881FDAF7880F9695879597F9089557FD4F
:104A90009058440F551F59F05F3F71F04795880FAC
:104AA00097FB991F61F09F3F79F087950895121643
:104AB00013061406551FF2CF4695F1DF08C01616EF
:104AC00017061806991FF1CF8695710561050894A0
:104AD0000895E894BB2766277727CB0197F90895B7
:104AE0000E9483250C94F4250E94E62538F00E944C
:104AF000ED2520F0952311F00C94DD250C94E32591
:104B000011240C946A250E94472570F3959FC1F3E8
:104B1000950F50E0551F629FF001729FBB27F00D6B
:104B2000B11D639FAA27F00DB11DAA1F649F6627C0
:104B3000B00DA11D661F829F2227B00DA11D621F0F
:104B4000739FB00DA11D621F839FA00D611D221FC9
:104B5000749F3327A00D611D231F849F600D211DAD
:104B6000822F762F6A2F11249F5750409AF0F1F030
:104B700088234AF0EE0FFF1FBB1F661F771F881F99
:104B800091505040A9F79E3F510580F00C94DD25CF
:104B90000C946A255F3FE4F3983ED4F386957795AD
:104BA0006795B795F795E7959F5FC1F7FE2B880F3F
:104BB000911D9695879597F9089597F99F6780E8D5
:104BC00070E060E008959FEF80EC089500240A945F
:104BD0001616170618060906089500240A941216D8
:104BE0001306140605060895092E0394000C11F40B
:104BF000882352F0BB0F40F4BF2B11F460FF04C0B8
:104C00006F5F7F4F8F4F9F4F089597FB072E16F4CE
:104C1000009407D077FD09D00E941F2607FC05D01D
:104C20003EF4909581959F4F0895709561957F4FC3
:104C30000895EE0FFF1F0590F491E02D0994AA1B33
:104C4000BB1B51E107C0AA1FBB1FA617B70710F077
:104C5000A61BB70B881F991F5A95A9F780959095A9
:104C6000BC01CD010895F999FECF92BD81BDF89A9E
:104C7000992780B50895A8E1B0E042E050E00C9497
:104C80005B26262FF999FECF92BD81BDF89A019738
:104C900000B4021639F01FBA20BD0FB6F894FA9A84
:104CA000F99A0FBE08950196272F0E9442260C9470
:104CB0004126DC01CB01FC01F999FECF06C0F2BD13
:104CC000E1BDF89A319600B40D9241505040B8F7CA
:064CD0000895F894FFCFE7
:104CD60015022808140A321EEB1D7D1E581E221EC0
:104CE600EE1D01F7676634979694C6303132333736
:104CF6009091929395F0F1F4F5F6404D3639570DB3
:0E4D06000A0DD40C9B0C2E0C470C600C790C83
:00000001FF
